{
  "address": "0xdF1E8487be9a1DE79D16C51E16B79779622801C5",
  "abi": [
    {
      "inputs": [
        {
          "internalType": "string",
          "name": "name",
          "type": "string"
        },
        {
          "internalType": "string",
          "name": "symbol",
          "type": "string"
        },
        {
          "internalType": "address",
          "name": "controller",
          "type": "address"
        }
      ],
      "stateMutability": "nonpayable",
      "type": "constructor"
    },
    {
      "inputs": [],
      "name": "EmptyTokenIds",
      "type": "error"
    },
    {
      "inputs": [
        {
          "internalType": "address",
          "name": "sender",
          "type": "address"
        },
        {
          "internalType": "uint256",
          "name": "tokenId",
          "type": "uint256"
        }
      ],
      "name": "NotOwner",
      "type": "error"
    },
    {
      "inputs": [
        {
          "internalType": "contract IERC721",
          "name": "token",
          "type": "address"
        }
      ],
      "name": "NotWhitelisted",
      "type": "error"
    },
    {
      "inputs": [],
      "name": "ZeroAddress",
      "type": "error"
    },
    {
      "anonymous": false,
      "inputs": [
        {
          "indexed": true,
          "internalType": "address",
          "name": "owner",
          "type": "address"
        },
        {
          "indexed": true,
          "internalType": "address",
          "name": "approved",
          "type": "address"
        },
        {
          "indexed": true,
          "internalType": "uint256",
          "name": "tokenId",
          "type": "uint256"
        }
      ],
      "name": "Approval",
      "type": "event"
    },
    {
      "anonymous": false,
      "inputs": [
        {
          "indexed": true,
          "internalType": "address",
          "name": "owner",
          "type": "address"
        },
        {
          "indexed": true,
          "internalType": "address",
          "name": "operator",
          "type": "address"
        },
        {
          "indexed": false,
          "internalType": "bool",
          "name": "approved",
          "type": "bool"
        }
      ],
      "name": "ApprovalForAll",
      "type": "event"
    },
    {
      "anonymous": false,
      "inputs": [
        {
          "indexed": true,
          "internalType": "contract IERC721",
          "name": "collection",
          "type": "address"
        }
      ],
      "name": "CollectionWhitelisted",
      "type": "event"
    },
    {
      "anonymous": false,
      "inputs": [
        {
          "indexed": true,
          "internalType": "address",
          "name": "previousOwner",
          "type": "address"
        },
        {
          "indexed": true,
          "internalType": "address",
          "name": "newOwner",
          "type": "address"
        }
      ],
      "name": "OwnershipTransferred",
      "type": "event"
    },
    {
      "anonymous": false,
      "inputs": [
        {
          "indexed": true,
          "internalType": "uint256",
          "name": "wrappedTokenId",
          "type": "uint256"
        },
        {
          "indexed": true,
          "internalType": "contract IERC721",
          "name": "collection",
          "type": "address"
        },
        {
          "indexed": false,
          "internalType": "uint256",
          "name": "originalTokenId",
          "type": "uint256"
        }
      ],
      "name": "TokenUnwrapped",
      "type": "event"
    },
    {
      "anonymous": false,
      "inputs": [
        {
          "indexed": true,
          "internalType": "uint256",
          "name": "wrappedTokenId",
          "type": "uint256"
        },
        {
          "indexed": true,
          "internalType": "contract IERC721",
          "name": "collection",
          "type": "address"
        },
        {
          "indexed": false,
          "internalType": "uint256",
          "name": "originalTokenId",
          "type": "uint256"
        }
      ],
      "name": "TokenWrapped",
      "type": "event"
    },
    {
      "anonymous": false,
      "inputs": [
        {
          "indexed": true,
          "internalType": "address",
          "name": "from",
          "type": "address"
        },
        {
          "indexed": true,
          "internalType": "address",
          "name": "to",
          "type": "address"
        },
        {
          "indexed": true,
          "internalType": "uint256",
          "name": "tokenId",
          "type": "uint256"
        }
      ],
      "name": "Transfer",
      "type": "event"
    },
    {
      "inputs": [
        {
          "internalType": "address",
          "name": "to",
          "type": "address"
        },
        {
          "internalType": "uint256",
          "name": "tokenId",
          "type": "uint256"
        }
      ],
      "name": "approve",
      "outputs": [],
      "stateMutability": "nonpayable",
      "type": "function"
    },
    {
      "inputs": [
        {
          "internalType": "address",
          "name": "owner",
          "type": "address"
        }
      ],
      "name": "balanceOf",
      "outputs": [
        {
          "internalType": "uint256",
          "name": "",
          "type": "uint256"
        }
      ],
      "stateMutability": "view",
      "type": "function"
    },
    {
      "inputs": [
        {
          "internalType": "uint256[]",
          "name": "tokenIds",
          "type": "uint256[]"
        }
      ],
      "name": "batchUnwrap",
      "outputs": [],
      "stateMutability": "nonpayable",
      "type": "function"
    },
    {
      "inputs": [
        {
          "internalType": "contract IERC721",
          "name": "collection",
          "type": "address"
        },
        {
          "internalType": "uint256[]",
          "name": "tokenIds",
          "type": "uint256[]"
        }
      ],
      "name": "batchWrap",
      "outputs": [],
      "stateMutability": "nonpayable",
      "type": "function"
    },
    {
      "inputs": [
        {
          "internalType": "uint256",
          "name": "tokenId",
          "type": "uint256"
        }
      ],
      "name": "getApproved",
      "outputs": [
        {
          "internalType": "address",
          "name": "",
          "type": "address"
        }
      ],
      "stateMutability": "view",
      "type": "function"
    },
    {
      "inputs": [
        {
          "internalType": "uint256",
          "name": "tokenId",
          "type": "uint256"
        }
      ],
      "name": "getWrapInfo",
      "outputs": [
        {
          "components": [
            {
              "internalType": "address",
              "name": "collection",
              "type": "address"
            },
            {
              "internalType": "uint96",
              "name": "tokenId",
              "type": "uint96"
            }
          ],
          "internalType": "struct WrappedNetraNFT.WrapInfo",
          "name": "",
          "type": "tuple"
        }
      ],
      "stateMutability": "view",
      "type": "function"
    },
    {
      "inputs": [
        {
          "internalType": "address",
          "name": "owner",
          "type": "address"
        },
        {
          "internalType": "address",
          "name": "operator",
          "type": "address"
        }
      ],
      "name": "isApprovedForAll",
      "outputs": [
        {
          "internalType": "bool",
          "name": "",
          "type": "bool"
        }
      ],
      "stateMutability": "view",
      "type": "function"
    },
    {
      "inputs": [
        {
          "internalType": "contract IERC721",
          "name": "collection",
          "type": "address"
        }
      ],
      "name": "isWhitelisted",
      "outputs": [
        {
          "internalType": "bool",
          "name": "",
          "type": "bool"
        }
      ],
      "stateMutability": "view",
      "type": "function"
    },
    {
      "inputs": [],
      "name": "name",
      "outputs": [
        {
          "internalType": "string",
          "name": "",
          "type": "string"
        }
      ],
      "stateMutability": "view",
      "type": "function"
    },
    {
      "inputs": [
        {
          "internalType": "address",
          "name": "",
          "type": "address"
        },
        {
          "internalType": "address",
          "name": "",
          "type": "address"
        },
        {
          "internalType": "uint256",
          "name": "",
          "type": "uint256"
        },
        {
          "internalType": "bytes",
          "name": "",
          "type": "bytes"
        }
      ],
      "name": "onERC721Received",
      "outputs": [
        {
          "internalType": "bytes4",
          "name": "",
          "type": "bytes4"
        }
      ],
      "stateMutability": "nonpayable",
      "type": "function"
    },
    {
      "inputs": [],
      "name": "owner",
      "outputs": [
        {
          "internalType": "address",
          "name": "",
          "type": "address"
        }
      ],
      "stateMutability": "view",
      "type": "function"
    },
    {
      "inputs": [
        {
          "internalType": "uint256",
          "name": "tokenId",
          "type": "uint256"
        }
      ],
      "name": "ownerOf",
      "outputs": [
        {
          "internalType": "address",
          "name": "",
          "type": "address"
        }
      ],
      "stateMutability": "view",
      "type": "function"
    },
    {
      "inputs": [],
      "name": "renounceOwnership",
      "outputs": [],
      "stateMutability": "nonpayable",
      "type": "function"
    },
    {
      "inputs": [
        {
          "internalType": "uint256",
          "name": "tokenId",
          "type": "uint256"
        },
        {
          "internalType": "uint256",
          "name": "salePrice",
          "type": "uint256"
        }
      ],
      "name": "royaltyInfo",
      "outputs": [
        {
          "internalType": "address",
          "name": "",
          "type": "address"
        },
        {
          "internalType": "uint256",
          "name": "",
          "type": "uint256"
        }
      ],
      "stateMutability": "view",
      "type": "function"
    },
    {
      "inputs": [
        {
          "internalType": "address",
          "name": "from",
          "type": "address"
        },
        {
          "internalType": "address",
          "name": "to",
          "type": "address"
        },
        {
          "internalType": "uint256",
          "name": "tokenId",
          "type": "uint256"
        }
      ],
      "name": "safeTransferFrom",
      "outputs": [],
      "stateMutability": "nonpayable",
      "type": "function"
    },
    {
      "inputs": [
        {
          "internalType": "address",
          "name": "from",
          "type": "address"
        },
        {
          "internalType": "address",
          "name": "to",
          "type": "address"
        },
        {
          "internalType": "uint256",
          "name": "tokenId",
          "type": "uint256"
        },
        {
          "internalType": "bytes",
          "name": "_data",
          "type": "bytes"
        }
      ],
      "name": "safeTransferFrom",
      "outputs": [],
      "stateMutability": "nonpayable",
      "type": "function"
    },
    {
      "inputs": [
        {
          "internalType": "address",
          "name": "operator",
          "type": "address"
        },
        {
          "internalType": "bool",
          "name": "approved",
          "type": "bool"
        }
      ],
      "name": "setApprovalForAll",
      "outputs": [],
      "stateMutability": "nonpayable",
      "type": "function"
    },
    {
      "inputs": [
        {
          "internalType": "bytes4",
          "name": "interfaceId",
          "type": "bytes4"
        }
      ],
      "name": "supportsInterface",
      "outputs": [
        {
          "internalType": "bool",
          "name": "",
          "type": "bool"
        }
      ],
      "stateMutability": "view",
      "type": "function"
    },
    {
      "inputs": [],
      "name": "symbol",
      "outputs": [
        {
          "internalType": "string",
          "name": "",
          "type": "string"
        }
      ],
      "stateMutability": "view",
      "type": "function"
    },
    {
      "inputs": [
        {
          "internalType": "uint256",
          "name": "tokenId",
          "type": "uint256"
        }
      ],
      "name": "tokenURI",
      "outputs": [
        {
          "internalType": "string",
          "name": "",
          "type": "string"
        }
      ],
      "stateMutability": "view",
      "type": "function"
    },
    {
      "inputs": [],
      "name": "totalSupply",
      "outputs": [
        {
          "internalType": "uint256",
          "name": "",
          "type": "uint256"
        }
      ],
      "stateMutability": "view",
      "type": "function"
    },
    {
      "inputs": [
        {
          "internalType": "address",
          "name": "from",
          "type": "address"
        },
        {
          "internalType": "address",
          "name": "to",
          "type": "address"
        },
        {
          "internalType": "uint256",
          "name": "tokenId",
          "type": "uint256"
        }
      ],
      "name": "transferFrom",
      "outputs": [],
      "stateMutability": "nonpayable",
      "type": "function"
    },
    {
      "inputs": [
        {
          "internalType": "address",
          "name": "newOwner",
          "type": "address"
        }
      ],
      "name": "transferOwnership",
      "outputs": [],
      "stateMutability": "nonpayable",
      "type": "function"
    },
    {
      "inputs": [
        {
          "internalType": "uint256",
          "name": "tokenId",
          "type": "uint256"
        }
      ],
      "name": "unwrap",
      "outputs": [],
      "stateMutability": "nonpayable",
      "type": "function"
    },
    {
      "inputs": [
        {
          "internalType": "contract IERC721",
          "name": "collection",
          "type": "address"
        }
      ],
      "name": "whitelistCollection",
      "outputs": [],
      "stateMutability": "nonpayable",
      "type": "function"
    },
    {
      "inputs": [
        {
          "internalType": "contract IERC721",
          "name": "collection",
          "type": "address"
        },
        {
          "internalType": "uint256",
          "name": "tokenId",
          "type": "uint256"
        }
      ],
      "name": "wrap",
      "outputs": [],
      "stateMutability": "nonpayable",
      "type": "function"
    }
  ],
  "transactionHash": "0x7bf075dadeac7231c973ec2f44824397febf5f5bf77ddfede5e54e194b6c1d9a",
  "args": [
    "Wrapped Netra Record",
    "wRECORD",
    "0xA122D06b3C3f9Ccdd78438f8253C2E2Cf98d63B4"
  ],
  "numDeployments": 1,
  "solcInputHash": "07ad06120c914aa329f0602b02ad7a02",
  "bytecode": "0x60806040523480156200001157600080fd5b5060405162002b3338038062002b3383398101604081905262000034916200024b565b8282620000413362000088565b815162000056906001906020850190620000d8565b5080516200006c906002906020840190620000d8565b50506001600755506200007f8162000088565b50505062000314565b600080546001600160a01b038381166001600160a01b0319831681178455604051919092169283917f8be0079c531659141344cd1fd0a4f28419497f9722a3daafe3b4186f6b6457e09190a35050565b828054620000e690620002d8565b90600052602060002090601f0160209004810192826200010a576000855562000155565b82601f106200012557805160ff191683800117855562000155565b8280016001018555821562000155579182015b828111156200015557825182559160200191906001019062000138565b506200016392915062000167565b5090565b5b8082111562000163576000815560010162000168565b634e487b7160e01b600052604160045260246000fd5b600082601f830112620001a657600080fd5b81516001600160401b0380821115620001c357620001c36200017e565b604051601f8301601f19908116603f01168101908282118183101715620001ee57620001ee6200017e565b816040528381526020925086838588010111156200020b57600080fd5b600091505b838210156200022f578582018301518183018401529082019062000210565b83821115620002415760008385830101525b9695505050505050565b6000806000606084860312156200026157600080fd5b83516001600160401b03808211156200027957600080fd5b620002878783880162000194565b945060208601519150808211156200029e57600080fd5b50620002ad8682870162000194565b604086015190935090506001600160a01b0381168114620002cd57600080fd5b809150509250925092565b600181811c90821680620002ed57607f821691505b6020821081036200030e57634e487b7160e01b600052602260045260246000fd5b50919050565b61280f80620003246000396000f3fe608060405234801561001057600080fd5b50600436106101ad5760003560e01c8063715018a6116100ee578063bf376c7a11610097578063d616169d11610071578063d616169d1461046f578063de0e9a3e14610482578063e985e9c514610495578063f2fde38b146104d157600080fd5b8063bf376c7a14610436578063c10aaf2614610449578063c87b56dd1461045c57600080fd5b806395d89b41116100c857806395d89b4114610408578063a22cb46514610410578063b88d4fde1461042357600080fd5b8063715018a6146103465780638447df3a1461034e5780638da5cb5b146103f757600080fd5b806318160ddd1161015b5780633af32abf116101355780633af32abf146102e157806342842e0e1461030d5780636352211e1461032057806370a082311461033357600080fd5b806318160ddd1461028657806323b872dd1461029c5780632a55205a146102af57600080fd5b8063081812fc1161018c578063081812fc14610204578063095ea7b31461022f578063150b7a021461024257600080fd5b80622e87c8146101b257806301ffc9a7146101c757806306fdde03146101ef575b600080fd5b6101c56101c036600461219f565b6104e4565b005b6101da6101d536600461220f565b610753565b60405190151581526020015b60405180910390f35b6101f76107af565b6040516101e691906122a2565b6102176102123660046122b5565b610841565b6040516001600160a01b0390911681526020016101e6565b6101c561023d3660046122e3565b6108e7565b6102556102503660046123d3565b610a3e565b6040517fffffffff0000000000000000000000000000000000000000000000000000000090911681526020016101e6565b61028e610a68565b6040519081526020016101e6565b6101c56102aa366004612482565b610a7f565b6102c26102bd3660046124c3565b610b06565b604080516001600160a01b0390931683526020830191909152016101e6565b6101da6102ef3660046124e5565b6001600160a01b031660009081526008602052604090205460ff1690565b6101c561031b366004612482565b610be7565b61021761032e3660046122b5565b610c02565b61028e6103413660046124e5565b610c8d565b6101c5610d27565b6103c561035c3660046122b5565b6040805180820190915260008082526020820152506000908152600960209081526040918290208251808401909352546001600160a01b03811683527401000000000000000000000000000000000000000090046bffffffffffffffffffffffff169082015290565b6040805182516001600160a01b031681526020928301516bffffffffffffffffffffffff1692810192909252016101e6565b6000546001600160a01b0316610217565b6101f7610d8d565b6101c561041e366004612502565b610d9c565b6101c56104313660046123d3565b610dab565b6101c56104443660046122e3565b610e39565b6101c56104573660046124e5565b61103e565b6101f761046a3660046122b5565b611142565b6101c561047d366004612540565b61123c565b6101c56104903660046122b5565b6114b7565b6101da6104a3366004612595565b6001600160a01b03918216600090815260066020908152604080832093909416825291909152205460ff1690565b6101c56104df3660046124e5565b6116b5565b60026007540361053b5760405162461bcd60e51b815260206004820152601f60248201527f5265656e7472616e637947756172643a207265656e7472616e742063616c6c0060448201526064015b60405180910390fd5b6002600755600081900361057b576040517fed5f7d0c00000000000000000000000000000000000000000000000000000000815260040160405180910390fd5b60005b8181101561074157600083838381811061059a5761059a6125c3565b9050602002013590506105ac81610c02565b6001600160a01b0316336001600160a01b0316146105ff576040517f6f7f64bf00000000000000000000000000000000000000000000000000000000815233600482015260248101829052604401610532565b6000818152600960209081526040918290208251808401845290546001600160a01b038116808352740100000000000000000000000000000000000000009091046bffffffffffffffffffffffff1692820183905292517f42842e0e0000000000000000000000000000000000000000000000000000000081523060048201523360248201526044810192909252919081906342842e0e90606401600060405180830381600087803b1580156106b457600080fd5b505af11580156106c8573d6000803e3d6000fd5b5050506020808401516040516bffffffffffffffffffffffff90911681526001600160a01b038416925085917fb7f22bbc80a08705cd2c3c1f413cc74873d2f40b43a426a67685d13d8e04405b910160405180910390a361072883611797565b505060009081526009602052604081205560010161057e565b50600b80549091019055506001600755565b60007fffffffff0000000000000000000000000000000000000000000000000000000082167f2a55205a0000000000000000000000000000000000000000000000000000000014806107a957506107a98261184a565b92915050565b6060600180546107be906125f2565b80601f01602080910402602001604051908101604052809291908181526020018280546107ea906125f2565b80156108375780601f1061080c57610100808354040283529160200191610837565b820191906000526020600020905b81548152906001019060200180831161081a57829003601f168201915b5050505050905090565b6000818152600360205260408120546001600160a01b03166108cb5760405162461bcd60e51b815260206004820152603560248201527f4f7074696d697a65644552433732313a20617070726f7665642071756572792060448201527f666f72206e6f6e6578697374656e7420746f6b656e00000000000000000000006064820152608401610532565b506000908152600560205260409020546001600160a01b031690565b60006108f282610c02565b9050806001600160a01b0316836001600160a01b03160361097b5760405162461bcd60e51b815260206004820152602a60248201527f4f7074696d697a65644552433732313a20617070726f76616c20746f2063757260448201527f72656e74206f776e6572000000000000000000000000000000000000000000006064820152608401610532565b336001600160a01b0382161480610997575061099781336104a3565b610a2f5760405162461bcd60e51b815260206004820152604160248201527f4f7074696d697a65644552433732313a20617070726f76652063616c6c65722060448201527f6973206e6f74206f776e6572206e6f7220617070726f76656420666f7220616c60648201527f6c00000000000000000000000000000000000000000000000000000000000000608482015260a401610532565b610a39838361192d565b505050565b7f150b7a02000000000000000000000000000000000000000000000000000000005b949350505050565b6000600b54600a54610a7a9190612674565b905090565b610a8933826119b3565b610afb5760405162461bcd60e51b815260206004820152603a60248201527f4f7074696d697a65644552433732313a207472616e736665722063616c6c657260448201527f206973206e6f74206f776e6572206e6f7220617070726f7665640000000000006064820152608401610532565b610a39838383611aba565b60008281526009602090815260408083208151808301835290546001600160a01b038116808352740100000000000000000000000000000000000000009091046bffffffffffffffffffffffff169382019390935290517f2a55205a0000000000000000000000000000000000000000000000000000000081526004810186905260248101859052839290632a55205a906044016040805180830381865afa158015610bb6573d6000803e3d6000fd5b505050506040513d601f19601f82011682018060405250810190610bda919061268b565b92509250505b9250929050565b610a3983838360405180602001604052806000815250610dab565b6000818152600360205260408120546001600160a01b0316806107a95760405162461bcd60e51b815260206004820152603260248201527f4f7074696d697a65644552433732313a206f776e657220717565727920666f7260448201527f206e6f6e6578697374656e7420746f6b656e00000000000000000000000000006064820152608401610532565b60006001600160a01b038216610d0b5760405162461bcd60e51b815260206004820152603360248201527f4f7074696d697a65644552433732313a2062616c616e6365207175657279206660448201527f6f7220746865207a65726f2061646472657373000000000000000000000000006064820152608401610532565b506001600160a01b031660009081526004602052604090205490565b6000546001600160a01b03163314610d815760405162461bcd60e51b815260206004820181905260248201527f4f776e61626c653a2063616c6c6572206973206e6f7420746865206f776e65726044820152606401610532565b610d8b6000611ca0565b565b6060600280546107be906125f2565b610da7338383611d08565b5050565b610db533836119b3565b610e275760405162461bcd60e51b815260206004820152603a60248201527f4f7074696d697a65644552433732313a207472616e736665722063616c6c657260448201527f206973206e6f74206f776e6572206e6f7220617070726f7665640000000000006064820152608401610532565b610e3384848484611e1a565b50505050565b600260075403610e8b5760405162461bcd60e51b815260206004820152601f60248201527f5265656e7472616e637947756172643a207265656e7472616e742063616c6c006044820152606401610532565b60026007556001600160a01b03821660009081526008602052604090205460ff16610eed576040517fdf17e3160000000000000000000000000000000000000000000000000000000081526001600160a01b0383166004820152602401610532565b6040517f23b872dd000000000000000000000000000000000000000000000000000000008152336004820152306024820152604481018290526001600160a01b038316906323b872dd90606401600060405180830381600087803b158015610f5457600080fd5b505af1158015610f68573d6000803e3d6000fd5b505050506000600a60008154610f7d906126b9565b91829055509050610f8e3382611ea3565b33600090815260046020908152604080832080546001019055805180820182526001600160a01b038781168083526bffffffffffffffffffffffff888116848701908152888852600987529685902093519651167401000000000000000000000000000000000000000002959091169490941790558051858152905184927f04dd98b007dc7b5428e31548be7db01d74da7724e6c7d44612cc3275fbbe1939928290030190a35050600160075550565b6000546001600160a01b031633146110985760405162461bcd60e51b815260206004820181905260248201527f4f776e61626c653a2063616c6c6572206973206e6f7420746865206f776e65726044820152606401610532565b6001600160a01b0381166110d8576040517fd92e233d00000000000000000000000000000000000000000000000000000000815260040160405180910390fd5b6001600160a01b03811660008181526008602052604080822080547fffffffffffffffffffffffffffffffffffffffffffffffffffffffffffffff00166001179055517f5e545f3ad2547fc22aca93a141dc7b9b7269f354ed590a87cc414da3b99f1bad9190a250565b6000818152600960209081526040918290208251808401845290546001600160a01b038116808352740100000000000000000000000000000000000000009091046bffffffffffffffffffffffff1692820183905292517fc87b56dd0000000000000000000000000000000000000000000000000000000081526004810192909252606092909163c87b56dd90602401600060405180830381865afa1580156111ef573d6000803e3d6000fd5b505050506040513d6000823e601f3d9081017fffffffffffffffffffffffffffffffffffffffffffffffffffffffffffffffe016820160405261123591908101906126f1565b9392505050565b60026007540361128e5760405162461bcd60e51b815260206004820152601f60248201527f5265656e7472616e637947756172643a207265656e7472616e742063616c6c006044820152606401610532565b60026007556001600160a01b03831660009081526008602052604090205460ff166112f0576040517fdf17e3160000000000000000000000000000000000000000000000000000000081526001600160a01b0384166004820152602401610532565b600081900361132b576040517fed5f7d0c00000000000000000000000000000000000000000000000000000000815260040160405180910390fd5b600a5460005b8281101561149457600084848381811061134d5761134d6125c3565b6040517f23b872dd00000000000000000000000000000000000000000000000000000000815233600482015230602482015260209091029290920135604483018190529250506001600160a01b038716906323b872dd90606401600060405180830381600087803b1580156113c157600080fd5b505af11580156113d5573d6000803e3d6000fd5b505050506000836113e5906126b9565b93508390506113f43382611ea3565b6040805180820182526001600160a01b038981168083526bffffffffffffffffffffffff86811660208086019182526000888152600982528790209551915191909416740100000000000000000000000000000000000000009190921602179092559151848152909183917f04dd98b007dc7b5428e31548be7db01d74da7724e6c7d44612cc3275fbbe1939910160405180910390a35050600101611331565b50336000908152600460205260409020805483019055600a555050600160075550565b6002600754036115095760405162461bcd60e51b815260206004820152601f60248201527f5265656e7472616e637947756172643a207265656e7472616e742063616c6c006044820152606401610532565b600260075561151781610c02565b6001600160a01b0316336001600160a01b03161461156a576040517f6f7f64bf00000000000000000000000000000000000000000000000000000000815233600482015260248101829052604401610532565b6000818152600960209081526040918290208251808401845290546001600160a01b038116808352740100000000000000000000000000000000000000009091046bffffffffffffffffffffffff1692820183905292517f42842e0e0000000000000000000000000000000000000000000000000000000081523060048201523360248201526044810192909252919081906342842e0e90606401600060405180830381600087803b15801561161f57600080fd5b505af1158015611633573d6000803e3d6000fd5b5050506020808401516040516bffffffffffffffffffffffff90911681526001600160a01b038416925085917fb7f22bbc80a08705cd2c3c1f413cc74873d2f40b43a426a67685d13d8e04405b910160405180910390a361169383611797565b5050600090815260096020526040812055600b80546001908101909155600755565b6000546001600160a01b0316331461170f5760405162461bcd60e51b815260206004820181905260248201527f4f776e61626c653a2063616c6c6572206973206e6f7420746865206f776e65726044820152606401610532565b6001600160a01b03811661178b5760405162461bcd60e51b815260206004820152602660248201527f4f776e61626c653a206e6577206f776e657220697320746865207a65726f206160448201527f64647265737300000000000000000000000000000000000000000000000000006064820152608401610532565b61179481611ca0565b50565b60006117a282610c02565b90506117af60008361192d565b6001600160a01b03811660009081526004602052604081208054600192906117d8908490612674565b909155505060008281526003602052604080822080547fffffffffffffffffffffffff0000000000000000000000000000000000000000169055518391906001600160a01b038416907fddf252ad1be2c89b69c2b068fc378daa952ba7f163c4a11628f55a4df523b3ef908390a45050565b60007fffffffff0000000000000000000000000000000000000000000000000000000082167f80ac58cd0000000000000000000000000000000000000000000000000000000014806118dd57507fffffffff0000000000000000000000000000000000000000000000000000000082167f5b5e139f00000000000000000000000000000000000000000000000000000000145b806107a957507f01ffc9a7000000000000000000000000000000000000000000000000000000007fffffffff000000000000000000000000000000000000000000000000000000008316146107a9565b600081815260056020526040902080547fffffffffffffffffffffffff0000000000000000000000000000000000000000166001600160a01b038416908117909155819061197a82610c02565b6001600160a01b03167f8c5be1e5ebec7d5bd14f71427d1e84f3dd0314c0f7b2291e5b200ac8c7c3b92560405160405180910390a45050565b6000818152600360205260408120546001600160a01b0316611a3d5760405162461bcd60e51b815260206004820152603560248201527f4f7074696d697a65644552433732313a206f70657261746f722071756572792060448201527f666f72206e6f6e6578697374656e7420746f6b656e00000000000000000000006064820152608401610532565b6000611a4883610c02565b9050806001600160a01b0316846001600160a01b03161480611a8f57506001600160a01b0380821660009081526006602090815260408083209388168352929052205460ff165b80610a605750836001600160a01b0316611aa884610841565b6001600160a01b031614949350505050565b826001600160a01b0316611acd82610c02565b6001600160a01b031614611b495760405162461bcd60e51b815260206004820152602e60248201527f4f7074696d697a65644552433732313a207472616e736665722066726f6d206960448201527f6e636f7272656374206f776e65720000000000000000000000000000000000006064820152608401610532565b6001600160a01b038216611bc55760405162461bcd60e51b815260206004820152602d60248201527f4f7074696d697a65644552433732313a207472616e7366657220746f2074686560448201527f207a65726f2061646472657373000000000000000000000000000000000000006064820152608401610532565b611bd060008261192d565b6001600160a01b0383166000908152600460205260408120805460019290611bf9908490612674565b90915550506001600160a01b0382166000908152600460205260408120805460019290611c27908490612768565b909155505060008181526003602052604080822080547fffffffffffffffffffffffff0000000000000000000000000000000000000000166001600160a01b0386811691821790925591518493918716917fddf252ad1be2c89b69c2b068fc378daa952ba7f163c4a11628f55a4df523b3ef91a4505050565b600080546001600160a01b038381167fffffffffffffffffffffffff0000000000000000000000000000000000000000831681178455604051919092169283917f8be0079c531659141344cd1fd0a4f28419497f9722a3daafe3b4186f6b6457e09190a35050565b816001600160a01b0316836001600160a01b031603611d8f5760405162461bcd60e51b815260206004820152602260248201527f4f7074696d697a65644552433732313a20617070726f766520746f2063616c6c60448201527f65720000000000000000000000000000000000000000000000000000000000006064820152608401610532565b6001600160a01b0383811660008181526006602090815260408083209487168084529482529182902080547fffffffffffffffffffffffffffffffffffffffffffffffffffffffffffffff001686151590811790915591519182527f17307eab39ab6107e8899845ad3d59bd9653f200f220920489ca2b5937696c31910160405180910390a3505050565b611e25848484611aba565b611e3184848484611f9e565b610e335760405162461bcd60e51b815260206004820152603b60248201527f4f7074696d697a65644552433732313a207472616e7366657220746f206e6f6e60448201527f20455243373231526563656976657220696d706c656d656e74657200000000006064820152608401610532565b60008181526003602052604080822080547fffffffffffffffffffffffff0000000000000000000000000000000000000000166001600160a01b03861690811790915590518392907fddf252ad1be2c89b69c2b068fc378daa952ba7f163c4a11628f55a4df523b3ef908290a4611f2c6000838360405180602001604052806000815250611f9e565b610da75760405162461bcd60e51b815260206004820152603b60248201527f4f7074696d697a65644552433732313a207472616e7366657220746f206e6f6e60448201527f20455243373231526563656976657220696d706c656d656e74657200000000006064820152608401610532565b60006001600160a01b0384163b15612152576040517f150b7a020000000000000000000000000000000000000000000000000000000081526001600160a01b0385169063150b7a0290611ffb903390899088908890600401612780565b6020604051808303816000875af1925050508015612054575060408051601f3d9081017fffffffffffffffffffffffffffffffffffffffffffffffffffffffffffffffe0168201909252612051918101906127bc565b60015b612107573d808015612082576040519150601f19603f3d011682016040523d82523d6000602084013e612087565b606091505b5080516000036120ff5760405162461bcd60e51b815260206004820152603b60248201527f4f7074696d697a65644552433732313a207472616e7366657220746f206e6f6e60448201527f20455243373231526563656976657220696d706c656d656e74657200000000006064820152608401610532565b805181602001fd5b7fffffffff00000000000000000000000000000000000000000000000000000000167f150b7a0200000000000000000000000000000000000000000000000000000000149050610a60565b506001610a60565b60008083601f84011261216c57600080fd5b50813567ffffffffffffffff81111561218457600080fd5b6020830191508360208260051b8501011115610be057600080fd5b600080602083850312156121b257600080fd5b823567ffffffffffffffff8111156121c957600080fd5b6121d58582860161215a565b90969095509350505050565b7fffffffff000000000000000000000000000000000000000000000000000000008116811461179457600080fd5b60006020828403121561222157600080fd5b8135611235816121e1565b60005b8381101561224757818101518382015260200161222f565b83811115610e335750506000910152565b6000815180845261227081602086016020860161222c565b601f017fffffffffffffffffffffffffffffffffffffffffffffffffffffffffffffffe0169290920160200192915050565b6020815260006112356020830184612258565b6000602082840312156122c757600080fd5b5035919050565b6001600160a01b038116811461179457600080fd5b600080604083850312156122f657600080fd5b8235612301816122ce565b946020939093013593505050565b7f4e487b7100000000000000000000000000000000000000000000000000000000600052604160045260246000fd5b604051601f82017fffffffffffffffffffffffffffffffffffffffffffffffffffffffffffffffe016810167ffffffffffffffff811182821017156123855761238561230f565b604052919050565b600067ffffffffffffffff8211156123a7576123a761230f565b50601f017fffffffffffffffffffffffffffffffffffffffffffffffffffffffffffffffe01660200190565b600080600080608085870312156123e957600080fd5b84356123f4816122ce565b93506020850135612404816122ce565b925060408501359150606085013567ffffffffffffffff81111561242757600080fd5b8501601f8101871361243857600080fd5b803561244b6124468261238d565b61233e565b81815288602083850101111561246057600080fd5b8160208401602083013760006020838301015280935050505092959194509250565b60008060006060848603121561249757600080fd5b83356124a2816122ce565b925060208401356124b2816122ce565b929592945050506040919091013590565b600080604083850312156124d657600080fd5b50508035926020909101359150565b6000602082840312156124f757600080fd5b8135611235816122ce565b6000806040838503121561251557600080fd5b8235612520816122ce565b91506020830135801515811461253557600080fd5b809150509250929050565b60008060006040848603121561255557600080fd5b8335612560816122ce565b9250602084013567ffffffffffffffff81111561257c57600080fd5b6125888682870161215a565b9497909650939450505050565b600080604083850312156125a857600080fd5b82356125b3816122ce565b91506020830135612535816122ce565b7f4e487b7100000000000000000000000000000000000000000000000000000000600052603260045260246000fd5b600181811c9082168061260657607f821691505b60208210810361263f577f4e487b7100000000000000000000000000000000000000000000000000000000600052602260045260246000fd5b50919050565b7f4e487b7100000000000000000000000000000000000000000000000000000000600052601160045260246000fd5b60008282101561268657612686612645565b500390565b6000806040838503121561269e57600080fd5b82516126a9816122ce565b6020939093015192949293505050565b60007fffffffffffffffffffffffffffffffffffffffffffffffffffffffffffffffff82036126ea576126ea612645565b5060010190565b60006020828403121561270357600080fd5b815167ffffffffffffffff81111561271a57600080fd5b8201601f8101841361272b57600080fd5b80516127396124468261238d565b81815285602083850101111561274e57600080fd5b61275f82602083016020860161222c565b95945050505050565b6000821982111561277b5761277b612645565b500190565b60006001600160a01b038087168352808616602084015250836040830152608060608301526127b26080830184612258565b9695505050505050565b6000602082840312156127ce57600080fd5b8151611235816121e156fea264697066735822122028677aaf3f630b115adcd1f0a314f58be860bd0f8b1172767e716947f208177664736f6c634300080d0033",
  "devdoc": {
    "kind": "dev",
    "methods": {
      "approve(address,uint256)": {
        "details": "See {IERC721-approve}."
      },
      "balanceOf(address)": {
        "details": "See {IERC721-balanceOf}."
      },
      "getApproved(uint256)": {
        "details": "See {IERC721-getApproved}."
      },
      "isApprovedForAll(address,address)": {
        "details": "See {IERC721-isApprovedForAll}."
      },
      "name()": {
        "details": "See {IERC721Metadata-name}."
      },
      "onERC721Received(address,address,uint256,bytes)": {
        "details": "See {IERC721Receiver-onERC721Received}. Always returns `IERC721Receiver.onERC721Received.selector`."
      },
      "owner()": {
        "details": "Returns the address of the current owner."
      },
      "ownerOf(uint256)": {
        "details": "See {IERC721-ownerOf}."
      },
      "renounceOwnership()": {
        "details": "Leaves the contract without owner. It will not be possible to call `onlyOwner` functions anymore. Can only be called by the current owner. NOTE: Renouncing ownership will leave the contract without an owner, thereby removing any functionality that is only available to the owner."
      },
      "royaltyInfo(uint256,uint256)": {
        "details": "Returns how much royalty is owed and to whom, based on a sale price that may be denominated in any unit of exchange. The royalty amount is denominated and should be paid in that same unit of exchange."
      },
      "safeTransferFrom(address,address,uint256)": {
        "details": "See {IERC721-safeTransferFrom}."
      },
      "safeTransferFrom(address,address,uint256,bytes)": {
        "details": "See {IERC721-safeTransferFrom}."
      },
      "setApprovalForAll(address,bool)": {
        "details": "See {IERC721-setApprovalForAll}."
      },
      "symbol()": {
        "details": "See {IERC721Metadata-symbol}."
      },
      "tokenURI(uint256)": {
        "details": "See {IERC721Metadata-tokenURI}."
      },
      "transferFrom(address,address,uint256)": {
        "details": "See {IERC721-transferFrom}."
      },
      "transferOwnership(address)": {
        "details": "Transfers ownership of the contract to a new account (`newOwner`). Can only be called by the current owner."
      }
    },
    "version": 1
  },
  "userdoc": {
    "kind": "user",
    "methods": {},
    "version": 1
  },
  "storageLayout": {
    "storage": [
      {
        "astId": 7,
        "contract": "contracts/WrappedNetraNFT.sol:WrappedNetraNFT",
        "label": "_owner",
        "offset": 0,
        "slot": "0",
        "type": "t_address"
      },
      {
        "astId": 2120,
        "contract": "contracts/WrappedNetraNFT.sol:WrappedNetraNFT",
        "label": "_name",
        "offset": 0,
        "slot": "1",
        "type": "t_string_storage"
      },
      {
        "astId": 2122,
        "contract": "contracts/WrappedNetraNFT.sol:WrappedNetraNFT",
        "label": "_symbol",
        "offset": 0,
        "slot": "2",
        "type": "t_string_storage"
      },
      {
        "astId": 2126,
        "contract": "contracts/WrappedNetraNFT.sol:WrappedNetraNFT",
        "label": "_owners",
        "offset": 0,
        "slot": "3",
        "type": "t_mapping(t_uint256,t_address)"
      },
      {
        "astId": 2130,
        "contract": "contracts/WrappedNetraNFT.sol:WrappedNetraNFT",
        "label": "_balances",
        "offset": 0,
        "slot": "4",
        "type": "t_mapping(t_address,t_uint256)"
      },
      {
        "astId": 2134,
        "contract": "contracts/WrappedNetraNFT.sol:WrappedNetraNFT",
        "label": "_tokenApprovals",
        "offset": 0,
        "slot": "5",
        "type": "t_mapping(t_uint256,t_address)"
      },
      {
        "astId": 2140,
        "contract": "contracts/WrappedNetraNFT.sol:WrappedNetraNFT",
        "label": "_operatorApprovals",
        "offset": 0,
        "slot": "6",
        "type": "t_mapping(t_address,t_mapping(t_address,t_bool))"
      },
      {
        "astId": 137,
        "contract": "contracts/WrappedNetraNFT.sol:WrappedNetraNFT",
        "label": "_status",
        "offset": 0,
        "slot": "7",
        "type": "t_uint256"
      },
      {
        "astId": 3064,
        "contract": "contracts/WrappedNetraNFT.sol:WrappedNetraNFT",
        "label": "s_whitelistedCollections",
        "offset": 0,
        "slot": "8",
        "type": "t_mapping(t_contract(IERC721)1148,t_bool)"
      },
      {
        "astId": 3069,
        "contract": "contracts/WrappedNetraNFT.sol:WrappedNetraNFT",
        "label": "s_wrappedTokens",
        "offset": 0,
        "slot": "9",
        "type": "t_mapping(t_uint256,t_struct(WrapInfo)3059_storage)"
      },
      {
        "astId": 3071,
        "contract": "contracts/WrappedNetraNFT.sol:WrappedNetraNFT",
        "label": "s_tokenIdCounter",
        "offset": 0,
        "slot": "10",
        "type": "t_uint256"
      },
      {
        "astId": 3073,
        "contract": "contracts/WrappedNetraNFT.sol:WrappedNetraNFT",
        "label": "s_burnedTokens",
        "offset": 0,
        "slot": "11",
        "type": "t_uint256"
      }
    ],
    "types": {
      "t_address": {
        "encoding": "inplace",
        "label": "address",
        "numberOfBytes": "20"
      },
      "t_bool": {
        "encoding": "inplace",
        "label": "bool",
        "numberOfBytes": "1"
      },
      "t_contract(IERC721)1148": {
        "encoding": "inplace",
        "label": "contract IERC721",
        "numberOfBytes": "20"
      },
      "t_mapping(t_address,t_bool)": {
        "encoding": "mapping",
        "key": "t_address",
        "label": "mapping(address => bool)",
        "numberOfBytes": "32",
        "value": "t_bool"
      },
      "t_mapping(t_address,t_mapping(t_address,t_bool))": {
        "encoding": "mapping",
        "key": "t_address",
        "label": "mapping(address => mapping(address => bool))",
        "numberOfBytes": "32",
        "value": "t_mapping(t_address,t_bool)"
      },
      "t_mapping(t_address,t_uint256)": {
        "encoding": "mapping",
        "key": "t_address",
        "label": "mapping(address => uint256)",
        "numberOfBytes": "32",
        "value": "t_uint256"
      },
      "t_mapping(t_contract(IERC721)1148,t_bool)": {
        "encoding": "mapping",
        "key": "t_contract(IERC721)1148",
        "label": "mapping(contract IERC721 => bool)",
        "numberOfBytes": "32",
        "value": "t_bool"
      },
      "t_mapping(t_uint256,t_address)": {
        "encoding": "mapping",
        "key": "t_uint256",
        "label": "mapping(uint256 => address)",
        "numberOfBytes": "32",
        "value": "t_address"
      },
      "t_mapping(t_uint256,t_struct(WrapInfo)3059_storage)": {
        "encoding": "mapping",
        "key": "t_uint256",
        "label": "mapping(uint256 => struct WrappedNetraNFT.WrapInfo)",
        "numberOfBytes": "32",
        "value": "t_struct(WrapInfo)3059_storage"
      },
      "t_string_storage": {
        "encoding": "bytes",
        "label": "string",
        "numberOfBytes": "32"
      },
      "t_struct(WrapInfo)3059_storage": {
        "encoding": "inplace",
        "label": "struct WrappedNetraNFT.WrapInfo",
        "members": [
          {
            "astId": 3056,
            "contract": "contracts/WrappedNetraNFT.sol:WrappedNetraNFT",
            "label": "collection",
            "offset": 0,
            "slot": "0",
            "type": "t_address"
          },
          {
            "astId": 3058,
            "contract": "contracts/WrappedNetraNFT.sol:WrappedNetraNFT",
            "label": "tokenId",
            "offset": 20,
            "slot": "0",
            "type": "t_uint96"
          }
        ],
        "numberOfBytes": "32"
      },
      "t_uint256": {
        "encoding": "inplace",
        "label": "uint256",
        "numberOfBytes": "32"
      },
      "t_uint96": {
        "encoding": "inplace",
        "label": "uint96",
        "numberOfBytes": "12"
      }
    }
  }
}